S0120000426C75654275747465722E7372656314
S113000019C033C032C031C030C02FC02EC02DC083
S11300102CC02BC02AC029C028C027C026C025C098
S113002024C023C022C021C020C01FC0C6C0EEC04F
S11300301CC01BC011241FBECFEFCDBFDFE3DEBF4A
S11300401FE3A0E0BFE3E6E9F2E002C005900D92F1
S1130050A430B107D9F72FE3A4E0BFE301C01D9298
S1130060AA31B207E1F704D014C1CACF4FD0089522
S1130070FDDF299A2AE684E091E0215080409040F7
S1130080E1F700C029982AE684E091E021508040FD
S11300909040E1F700C0299A2AE684E091E02150DB
S11300A080409040E1F700C029982AE28CE29AE06F
S11300B0215080409040E1F70000DBCF81E0809345
S11300C0000680E0089580E0089580E0089580E0CF
S11300D00895E0E1F4E0808188608193E83184E070
S11300E0F807C9F7E0E3F4E0808188608193E8339E
S11300F084E0F807C9F708952398E3E3F4E08081E6
S1130100877F8083229A2A98AAD00895E2DF079AEB
S11301100F9AE0E3F4E08081887F846080838081AB
S1130120877F8083219A2998D0DF08D0B0D0C6DF9A
S1130130E3DF0CD0CCDF08D0C6DF0895E0E4F1E0C3
S113014081818111FDCF089580E0089580E00895B4
S113015090910008E091113FEF5FE7708091103FAC
S1130160E81759F0E093113FF0E0EE5EF04C908315
S113017080910F3F8F5F80930F3F08958091043FDC
S1130180882389F0E091053FEF5FE770E093053F36
S1130190F0E0E95FF04C8081809302088091043F95
S11301A081508093043F8091043F811105C0E0E0B9
S11301B0F8E085818F7D858308951F920F920FB695
S11301C00F9211242F933F934F935F936F937F93D9
S11301D08F939F93AF93BF93EF93FF93E091023F6D
S11301E0F091033F309709F00995FF91EF91BF918A
S11301F0AF919F918F917F916F915F914F913F91BB
S11302002F910F900FBE0F901F9018951F920F9271
S11302100FB60F9211242F933F934F935F936F93D5
S11302207F938F939F93AF93BF93EF93FF93E0914B
S1130230003FF091013F309709F00995FF91EF914C
S1130240BF91AF919F918F917F916F915F914F91EA
S11302503F912F910F900FBE0F901F901895E0E0E3
S1130260F8E08DE695E08087918780E8858380ECCF
S113027086831092103F1092113F10920F3F1092FC
S1130280053F1092063F1092043F80E0089580E0FD
S10902900895F894FFCF6D
S1070296BE00A800FA
S9030000FC
