S0120000426C75654275747465722E7372656314
S113000019C033C032C031C030C02FC02EC02DC083
S11300102CC02BC02AC029C028C027C026C025C098
S113002024C023C022C021C020C01FC01CC144C1A1
S11300301CC01BC011241FBECFEFCDBFDFE3DEBF4A
S11300401FE3A0E0BFE3ECECF3E002C005900D92E7
S1130050A430B107D9F72FE3A4E0BFE301C01D9298
S1130060AA31B207E1F704D0ABC1CACF9DD008953D
S1130070CF93DF93CDB7DEB76097CDBFDEBF85E00A
S1130080E4ECF3E8DE01119601900D928A95E1F714
S1130090FE01369683E0DF011D928A95E9F7E6DFDB
S11300A06CD183D1009880B18E6F80B9E0E1F4E027
S11300B080818F778193E731B4E0FB07C9F7E7E1EB
S11300C0F4E080818068808311B878947E01E5E053
S11300D0EE0EF11C00E210E018D1E9E0F0E0EC0FC4
S11300E0FD1FE10FF11D80831F5F183008F017E03A
S11300F08A3091F7898581B9CE0101966C01D601C8
S11301008D916D011BD1CE14DF04C9F782B116D1D4
S1130110112361F0FE0139961150812F90E0019670
S11301208E0F9F1F01938E179F07E1F7299AE3ED26
S1130130F0E33197F1F700C000002998CCCFE0E05C
S1130140F6E080E182838DE1868381E0808380E034
S1130150089582E08093890080E0089543E068ED8B
S113016081E690E039D080E0089580E00895E0E1F0
S1130170F4E0808188608193E83184E0F807C9F76E
S1130180E0E3F4E0808188608193E83384E0F80759
S1130190C9F708952398E3E3F4E08081877F80839F
S11301A0229A2A98EAD00895E2DF079A0F9AE0E3A8
S11301B0F4E08081887F846080838081877F80836E
S11301C0219A2998CBDF0CD0F6D0B9DFE3DF14D025
S11301D0CCDF10D0BEDF0895FC0164BF40830895D6
S11301E0E0E4F1E081818111FDCF81E88093400159
S11301F080E0089580E0089580E0089590910008DB
S1130200E091113FEF5FE7708091103FE81759F0DC
S1130210E093113FF0E0EE5EF04C908380910F3F4D
S11302208F5F80930F3F08958091043F882389F066
S1130230E091053FEF5FE770E093053FF0E0E95F91
S1130240F04C8081809302088091043F8150809318
S1130250043F8091043F811105C0E0E0F8E085810E
S11302608F7D858308951F920F920FB60F921124EC
S11302702F933F934F935F936F937F938F939F93AA
S1130280AF93BF93EF93FF93E091023FF091033F4D
S1130290309709F00995FF91EF91BF91AF919F912C
S11302A08F917F916F915F914F913F912F910F901B
S11302B00FBE0F901F9018951F920F920FB60F92BA
S11302C011242F933F934F935F936F937F938F9357
S11302D09F93AF93BF93EF93FF93E091003FF0910F
S11302E0013F309709F00995FF91EF91BF91AF91CC
S11302F09F918F917F916F915F914F913F912F913A
S11303000F900FBE0F901F90189580910F3F882378
S1130310E1F3E091103FEF5FE770E093103F0FB619
S1130320F8940F9280910F3F815080930F3F0F906C
S11303300FBEF0E0EE5EF04C808108952091063F00
S11303402F5F27709091043F9830E1F3E22FF0E0A3
S1130350E95FF04C80832093063F0FB6F8940F9228
S11303608091043F8F5F8093043F0F900FBEE0E0C5
S1130370F8E08581806285830895E0E0F8E08EEA04
S113038090E08087918780E8858380EC8683109253
S1130390103F1092113F10920F3F1092053F1092A0
S11303A0063F1092043F80E00895E0E0F8E0868183
S11303B0806C8683089584E28093A00080E0089591
S10703C0F894FFCFDB
S10B03C44F75742000000000D5
S10703CC1401FE0016
S9030000FC
